:100000000C9462000C948A000C948A000C948A0070
:100010000C948A000C948A000C948A000C948A0038
:100020000C948A000C948A000C948A000C948A0028
:100030000C948A000C948A000C948A000C948A0018
:100040000C9408040C948A000C94D6030C94B0030E
:100050000C948A000C948A000C948A000C948A00F8
:100060000C948A000C948A000000000023002600F3
:10007000290000000000240027002A0000000000E2
:10008000250028002B0004040404040404040202D4
:100090000202020203030303030301020408102007
:1000A0004080010204081020010204081020000012
:1000B0000008000201000003040700000000000027
:1000C0000000970411241FBECFEFD8E0DEBFCDBFE4
:1000D00011E0A0E0B1E0E8E8F3E102C005900D9284
:1000E000A634B107D9F721E0A6E4B1E001C01D9222
:1000F000A93FB207E1F710E0C2E6D0E004C02197C3
:10010000FE010E94CA07C136D107C9F70E94F30455
:100110000C94C2090C940000AF92BF92CF92DF9270
:10012000EF92FF920F931F93CF93DF936C017B01AC
:100130008B01040F151FEB015E01AE18BF08C0173D
:10014000D10759F06991D601ED91FC910190F081B0
:10015000E02DC6010995892B79F7C501DF91CF9173
:100160001F910F91FF90EF90DF90CF90BF90AF90D5
:10017000089542E050E068E171E080E591E00C9480
:100180008C00FC01538D448D252F30E0842F90E0AE
:10019000821B930B541710F0CF9608950197089582
:1001A000FC01918D828D981761F0A28DAE0FBF2F4B
:1001B000B11D5D968C91928D9F5F9F73928F90E0A1
:1001C00008958FEF9FEF0895FC01918D828D981710
:1001D00031F0828DE80FF11D858D90E008958FEF4D
:1001E0009FEF0895FC01918D228D892F90E0805C16
:1001F0009F4F821B91098F739927089580E591E0A5
:100200000E94F20021E0892B09F420E0822F08955A
:1002100080E090E0892B29F00E94FE0081110C946F
:1002200000000895FC01A48DA80FB92FB11DA35A99
:10023000BF4F2C91848D90E001968F739927848F06
:10024000A689B7892C93A089B1898C918370806429
:100250008C93938D848D981306C00288F389E02DCA
:1002600080818F7D80830895EF92FF920F931F937B
:10027000CF93DF93EC0181E0888F9B8D8C8D981359
:100280001AC0E889F989808185FF15C09FB7F89465
:10029000EE89FF896083E889F989808183708064B1
:1002A00080839FBF81E090E0DF91CF911F910F91FC
:1002B000FF90EF900895F62E0B8D10E00F5F1F4F0B
:1002C0000F731127E02E8C8D8E110CC00FB607FC1A
:1002D000FACFE889F989808185FFF5CFCE010E94A8
:1002E0001201F1CFEB8DEC0FFD2FF11DE35AFF4F03
:1002F000F0829FB7F8940B8FEA89FB898081806236
:10030000CFCFCF93DF93EC01888D8823B9F0AA89F2
:10031000BB89E889F9898C9185FD03C0808186FDC0
:100320000DC00FB607FCF7CF8C9185FFF2CF80810F
:1003300085FFEDCFCE010E941201E9CFDF91CF9171
:10034000089590E0FC01E255FF4F2491FC01E65630
:10035000FF4F3491FC01EA57FF4FE491EE23C9F0BF
:10036000222339F0233001F1A8F4213019F1223091
:1003700029F1F0E0EE0FFF1FE458FF4FA591B49173
:100380008FB7F894EC91611126C030953E233C93D1
:100390008FBF08952730A9F02830C9F0243049F7DD
:1003A000809180008F7D03C0809180008F77809343
:1003B0008000DFCF84B58F7784BDDBCF84B58F7DA0
:1003C000FBCF8091B0008F778093B000D2CF809127
:1003D000B0008F7DF9CF3E2BDACFCF93DF9390E043
:1003E000FC01E656FF4F24918A579F4FFC018491F0
:1003F0008823D1F090E0880F991FFC01EE58FF4F41
:10040000A591B491FC01E458FF4FC591D4916111BD
:100410000EC09FB7F8948C91E22FE0958E238C93B9
:100420002881E223E8839FBFDF91CF9108958FB7A2
:10043000F894EC91E22BEC938FBFF6CF3FB7F89492
:1004400080914B0190914C01A0914D01B0914E01D2
:1004500026B5A89B05C02F3F19F00196A11DB11D1F
:100460003FBFBA2FA92F982F8827BC01CD01620F5B
:10047000711D811D911D42E0660F771F881F991F16
:100480004A95D1F708958F929F92AF92BF92CF92E3
:10049000DF92EF92FF924B015C010E941E026B0102
:1004A0007C010E941E026C197D098E099F09683E1D
:1004B000734081059105A8F321E0821A9108A108F3
:1004C000B10888EEC80E83E0D81EE11CF11C81142F
:1004D0009104A104B10429F7FF90EF90DF90CF9031
:1004E000BF90AF909F908F9008950F931F93CF93DD
:1004F000C82F8B0161E00E94A10128EE33E0D801F2
:100500000E94C30724EB30E040E050E00E943C072B
:1005100028513C4F4F4F5F4F220F331F220F331F85
:1005200025503109C9010197F1F760E08C2F0E9435
:10053000A1016AE070E080E090E0CF911F910F91FF
:100540000C944302CF93DF93EC018881998100974B
:1005500011F00E946C08198218821D821C821B8275
:100560001A82DF91CF910895FC01808191810097DB
:1005700011F00C946C0808950F931F93CF93DF93A1
:10058000EC0188819981009759F02A813B812617D7
:10059000370730F081E0DF91CF911F910F910895DF
:1005A0008B016F5F7F4F0E94F508009759F0998388
:1005B00088831B830A832C813D81232B59F7FC01FF
:1005C0001082E8CF80E0E7CFEF92FF920F931F9366
:1005D000CF93DF936115710541F480E0DF91CF91F6
:1005E0001F910F91FF90EF90089541155105B1F0C3
:1005F0007B01EC010C811D81040F151FB8010E94C5
:10060000BC02882351F3288139818C819D81B701F7
:10061000820F931F0E94BB091D830C8381E0DECFF4
:10062000EF92FF920F931F93CF93DF9300D000D0F0
:1006300000D01F92CDB7DEB77C01CB014AE08E011E
:100640000F5F1F4FB8010E94AC06F8010190002017
:10065000E9F73197AF01401B510BB801C7010E9468
:10066000E40227960FB6F894DEBF0FBECDBFDF9130
:10067000CF911F910F91FF90EF900895EF92FF920D
:100680000F931F93CF93DF93EC017B018A01BA0193
:100690000E94BC0281110BC0CE010E94A202CE01B9
:1006A000DF91CF911F910F91FF90EF9008951D83DF
:1006B0000C83B701888199810E94BB09F0CFFB01AF
:1006C00001900020E9F73197AF01461B570B0C94BE
:1006D0003E030F931F93CF93DF93EC0160E088817B
:1006E0000E94A10183E090E00197F1F761E0888129
:1006F0000E94A10183E290E00197F1F760E0888118
:100700000E94A101898190E0FC01E656FF4F6491AF
:10071000FC01EA57FF4FE491F0E0EE0FFF1FE859AC
:10072000FF4F8591949100E412E42FE030E0462FD2
:100730000E945204611571058105910529F06F5FD2
:100740007F4F8F4F9F4F9F702BE330E040E050E092
:100750000E949207C901DF91CF911F910F910895D7
:100760001F920F920FB60F9211242F933F934F9326
:100770005F936F937F938F939F93AF93BF93EF9309
:10078000FF9380E591E00E941201FF91EF91BF91EC
:10079000AF919F918F917F916F915F914F913F9119
:1007A0002F910F900FBE0F901F9018951F920F92D0
:1007B0000FB60F9211242F938F939F93EF93FF9374
:1007C000E0916001F09161018081E0916601F0911A
:1007D000670182FD1BC09081809169018F5F8F73DB
:1007E00020916A01821741F0E0916901F0E0E05B3D
:1007F000FE4F958F80936901FF91EF919F918F91AB
:100800002F910F900FBE0F901F9018958081F4CFFD
:100810001F920F920FB60F9211242F933F938F9335
:100820009F93AF93BF938091470190914801A0910E
:100830004901B0914A013091460123E0230F2D3741
:1008400058F50196A11DB11D2093460180934701E3
:1008500090934801A0934901B0934A0180914B01C4
:1008600090914C01A0914D01B0914E010196A11DB6
:10087000B11D80934B0190934C01A0934D01B09317
:100880004E01BF91AF919F918F913F912F910F900A
:100890000FBE0F901F90189526E8230F0296A11DFA
:1008A000B11DD2CFCF92DF92EF92FF920F931F93A1
:1008B000E82FF92F05C0015011092109310961F113
:1008C000908196239417B9F305C0015011092109AD
:1008D000310911F1908196239413F7CFC12CD12CBB
:1008E000E12CF12C0AC08FEFC81AD80AE80AF80ADE
:1008F0000C151D052E053F0579F080818623841790
:1009000091F36C2D7D2D8E2D9F2D1F910F91FF90BA
:10091000EF90DF90CF90089560E070E080E090E08D
:100920001F910F91FF90EF90DF90CF900895E0E539
:10093000F1E01382128288EE93E0A0E0B0E08483BD
:100940009583A683B7838AE091E09183808385ECC9
:1009500090E09587848784EC90E09787868780EC89
:1009600090E0918B808B81EC90E0938B828B82EC7A
:1009700090E0958B848B86EC90E0978B868B118E24
:10098000128E138E148E61E084E00E94ED0160E00F
:1009900085E00E94ED01E3EFF1E084E0808385E0F3
:1009A000818361E082E00E94ED0160E083E00E94CB
:1009B000ED01E1EFF1E082E0808383E08183CF010C
:1009C0000E946903BC0190E080E00E94DB06609316
:1009D000ED017093EE018093EF019093F00183EFAE
:1009E00091E00C946903CF93DF93CDB7DEB76297A4
:1009F0000FB6F894DEBF0FBECDBF789484B5826089
:100A000084BD84B5816084BD85B5826085BD85B5B2
:100A1000816085BD80916E00816080936E00109230
:100A200081008091810082608093810080918100AB
:100A3000816080938100809180008160809380003C
:100A40008091B10084608093B1008091B00081609A
:100A50008093B00080917A00846080937A008091C6
:100A60007A00826080937A0080917A00816080931E
:100A70007A0080917A00806880937A001092C10099
:100A800061E089E00E94ED0161E08AE00E94ED01F1
:100A9000E0916001F091610182E08083E0915C016E
:100AA000F0915D011082E0915E01F0915F018FECA9
:100AB000808310926801E0916401F091650186E005
:100AC0008083E0916201F091630180818061808385
:100AD000E0916201F0916301808188608083E09100
:100AE0006201F0916301808180688083E0916201FE
:100AF000F091630180818F7D808300E010E0FF240E
:100B0000F3941A8219821C821B821E821D826BE161
:100B100071E0CE0101960E945F0383EF91E00E9495
:100B200069035C011E861D86188A1F861A8A198A27
:100B30006FE171E0CE010D960E945F0318861F825F
:100B40001A8619861C861B866D857E856115710542
:100B500031F049895A89CE0107960E943E03B501BA
:100B6000CE0107960E941003811104C0CE010796A2
:100B70000E94A2024D815E8169817A81CE01079631
:100B80000E94E402811104C0CE0107960E94A202D5
:100B90004B855C856F81788580E591E00E948C00B3
:100BA0000E94B900CE0107960E94B402CE010D96B4
:100BB0000E94B402CE0101960E94B4021A821982E8
:100BC0001C821B821E821D826BE171E0CE010196A8
:100BD0000E945F0381EF91E00E9469035C011E8621
:100BE0001D86188A1F861A8A198A62E371E0CE016F
:100BF0000D960E945F0318861F821A8619861C862E
:100C00001B866D857E856115710531F049895A898C
:100C1000CE0107960E943E03B501CE0107960E94C1
:100C20001003811104C0CE0107960E94A2024D81DB
:100C30005E8169817A81CE0107960E94E40281116A
:100C400004C0CE0107960E94A2024B855C856F818D
:100C5000788580E591E00E948C000E94B900CE0169
:100C600007960E94B402CE010D960E94B402CE01F6
:100C700001960E94B4028090ED019090EE01A09048
:100C8000EF01B090F00181EF91E00E946903BC0197
:100C900090E080E00E94DB066093ED017093EE012E
:100CA0008093EF019093F00183EF91E00E9469033C
:100CB000449768F5F0924F016AE570E089E090E0B2
:100CC0000E9475022091ED013091EE014091EF01FB
:100CD0005091F001C501B4010E94D6068823F9F0B5
:100CE00081EF91E00E9469034F9758F170E060E056
:100CF0008AE090E00E94750260ED77E080E090E08D
:100D00000E9443026AE570E08AE090E006C010921B
:100D10004F0170E060E089E090E00E94750268ECAD
:100D200070E080E090E00E9443020115110509F493
:100D3000E8CE0E94FE00882309F4E3CE0E94000062
:100D4000E0CE64EB70E08AE090E00E94750268EE0D
:100D500073E080E090E0D4CFBB27FB015527AA27A2
:100D6000880F991FAA1FA41710F0A41B8395505138
:100D7000B9F7A05DAA3308F0A95DA193009779F7B0
:100D8000B111B1931192CB010C94C606DC01FC01A8
:100D9000672F71917723E1F7329704C07C916D93AF
:100DA00070836291AE17BF07C8F308950E941807B9
:100DB00008F481E00895E89409C097FB3EF490950B
:100DC0008095709561957F4F8F4F9F4F9923A9F024
:100DD000F92F96E9BB279395F695879577956795B3
:100DE000B795F111F8CFFAF4BB0F11F460FF1BC0F7
:100DF0006F5F7F4F8F4F9F4F16C0882311F096E98A
:100E000011C0772321F09EE8872F762F05C0662337
:100E100071F096E8862F70E060E02AF09A95660FF0
:100E2000771F881FDAF7880F9695879597F90895A9
:100E3000990F0008550FAA0BE0E8FEEF16161706EB
:100E4000E807F907C0F012161306E407F50798F053
:100E5000621B730B840B950B39F40A2661F0232B6C
:100E6000242B252B21F408950A2609F4A140A695E8
:100E70008FEF811D811D0895052E97FB1EF40094B0
:100E80000E94530757FD07D00E94920707FC03D02A
:100E90004EF40C94530750954095309521953F4F53
:100EA0004F4F5F4F089590958095709561957F4F56
:100EB0008F4F9F4F08952F923F924F925F926F9264
:100EC0007F928F929F92AF92BF92CF92DF92EF92DA
:100ED000FF920F931F93CF93DF93CDB7DEB7CA1B5B
:100EE000DB0B0FB6F894DEBF0FBECDBF09942A8886
:100EF000398848885F846E847D848C849B84AA842E
:100F0000B984C884DF80EE80FD800C811B81AA81BA
:100F1000B981CE0FD11D0FB6F894DEBF0FBECDBF85
:100F2000ED010895A1E21A2EAA1BBB1BFD010DC005
:100F3000AA1FBB1FEE1FFF1FA217B307E407F50789
:100F400020F0A21BB30BE40BF50B661F771F881F65
:100F5000991F1A9469F760957095809590959B01FB
:100F6000AC01BD01CF010895A29FB001B39FC001A4
:100F7000A39F700D811D1124911DB29F700D811DC5
:100F80001124911D08950E94B407B7FF0895821B94
:100F9000930B0895EE0FFF1F0590F491E02D099437
:100FA0000F931F93CF93DF938230910510F482E06B
:100FB00090E0E091F701F091F80130E020E0B0E03E
:100FC000A0E0309799F42115310509F44AC0281B97
:100FD000390B24303105D8F58A819B816115710563
:100FE00089F1FB0193838283FE0111C0408151810D
:100FF0000281138148175907E0F04817590799F4FF
:10100000109761F012960C93129713961C933296D8
:10101000CF01DF91CF911F910F9108950093F701B8
:101020001093F801F4CF2115310551F04217530701
:1010300038F0A901DB019A01BD01DF01F801C1CF40
:10104000EF01F9CF9093F8018093F701CDCFFE0126
:10105000E20FF31F81939193225031093983288342
:10106000D7CF2091F5013091F601232B41F4209147
:101070000201309103013093F6012093F501209194
:101080000001309101012115310541F42DB73EB722
:101090004091040150910501241B350BE091F501AD
:1010A000F091F601E217F307A0F42E1B3F0B28176F
:1010B000390778F0AC014E5F5F4F2417350748F0D1
:1010C0004E0F5F1F5093F6014093F501819391936A
:1010D0009FCFF0E0E0E09CCFCF93DF930097E9F063
:1010E000FC01329713821282A091F701B091F801AE
:1010F000ED0130E020E01097A1F420813181820FD2
:10110000931F2091F5013091F6012817390709F056
:1011100061C0F093F601E093F501DF91CF9108955E
:10112000EA01CE17DF07E8F54A815B819E01411590
:101130005105B1F7E901FB83EA8349915991C40F45
:10114000D51FEC17FD0761F4808191810296840F11
:10115000951FE90199838883828193819B838A8388
:10116000F0E0E0E012968D919C9113970097B9F50D
:101170002D913C911197CD010296820F931F2091E2
:10118000F5013091F6012817390739F6309751F5F6
:101190001092F8011092F701B093F601A093F501B7
:1011A000BCCFD383C28340815181840F951FC81760
:1011B000D90761F44E5F5F4F88819981480F591FAD
:1011C000518340838A819B819383828321153105DA
:1011D00009F0B0CFF093F801E093F7019ECFFD0145
:1011E000DC01C0CF13821282D7CFB0E0A0E0EBEFDA
:1011F000F8E00C945D078C01009751F4CB010E943C
:10120000D0078C01C801CDB7DEB7E0E10C947907B7
:10121000FC01E60FF71F9C0122503109E217F3078A
:1012200008F49DC0D901CD91DC911197C617D7075D
:1012300098F0C530D10530F3CE0104978617970793
:1012400008F3C61BD70B2297C193D1936D937C9360
:10125000CF010E946C08D6CF5B01AC1ABD0A4C01CD
:101260008C0E9D1EA091F701B091F801512C412CDC
:10127000F12CE12C109731F58091F5019091F60158
:101280008815990509F05CC04616570608F058C045
:101290008091000190910101009741F48DB79EB7B4
:1012A0004091040150910501841B950BE817F90743
:1012B00008F055C0F093F601E093F501F901718350
:1012C0006083A0CF8D919C91119712966C9012978C
:1012D00013967C901397A815B90559F56C0142E057
:1012E000C40ED11CCA14DB0420F1AC014A195B09FD
:1012F000DA011296159780F06282738251834083DF
:10130000D9016D937C93E114F10471F0D701139628
:10131000FC93EE93129776CF22968C0F9D1FF901C6
:1013200091838083F301EFCFF093F801E093F7010D
:1013300069CF4816590608F42C017D01D3019ACFD4
:10134000CB010E94D0077C01009749F0AE01B801A3
:101350000E94B209C8010E946C08870153CF10E0B7
:1013600000E050CFFB01DC0102C001900D92415022
:101370005040D8F70895FB01DC0101900D92002048
:08138000E1F70895F894FFCF96
:101388000000F90180000000000034018C00C10059
:101398008101F200D000E4000D0A0020636D0044D2
:1013A800697374616E636961207869636172613A17
:1013B800200044697374616E6369612074616D61B2
:0613C8006E686F3A200080
:00000001FF
