:100000000C945E000C9486000C9486000C94860080
:100010000C9486000C9486000C9486000C94860048
:100020000C9486000C9486000C9486000C94860038
:100030000C9486000C9486000C9486000C94860028
:100040000C948A040C9486000C9458040C9432048A
:100050000C9486000C9486000C9486000C94860008
:100060000C9486000C948600000000080002010039
:100070000003040700000000000000000000000072
:10008000250028002B0000000000240027002A0083
:10009000040404040404040402020202020203032E
:1000A0000303030301020408102040800102040836
:1000B0001020010204081020D404630811241FBE7C
:1000C000CFEFD8E0DEBFCDBF12E0A0E0B1E0EEEFB1
:1000D000F7E102C005900D92A234B107D9F723E0F1
:1000E000A2E4B2E001C01D92A630B207E1F710E031
:1000F000CDE5D0E004C02197FE010E94E909CC358E
:10010000D107C9F70E9412050C94F20B0C94000061
:1001100090E0FC01EC55FF4F249180579F4FFC016C
:100120008491882399F090E0880F991FFC01EA5789
:10013000FF4FA591B491FC01E458FF4F8591949134
:100140008FB7F894EC91E22BEC938FBF089508954C
:10015000AF92BF92CF92DF92EF92FF920F931F93D5
:10016000CF93DF936C017B018B01040F151FEB0113
:100170005E01AE18BF08C017D10759F06991D601CA
:10018000ED91FC910190F081E02DC6010995892B3C
:1001900079F7C501DF91CF911F910F91FF90EF90FB
:1001A000DF90CF90BF90AF900895FC01538D448DA8
:1001B000252F30E0842F90E0821B930B541710F012
:1001C000CF96089501970895FC01918D828D98171F
:1001D00061F0A28DAE0FBF2FB11D5D968C91928DF7
:1001E0009F5F9F73928F90E008958FEF9FEF089528
:1001F0002FB7F89480914F0290915002A091510234
:10020000B09152022FBF80935B0290935C02A09347
:100210005D02B0935E0283E592E00E94E40097FFE6
:1002200026C02FB7F89480914F0290915002A09170
:100230005102B09152022FBF40915B0250915C027B
:1002400060915D0270915E02841B950BA60BB70B4B
:1002500040915702509158026091590270915A0290
:1002600084179507A607B707B0F28FEF9FEF0895A1
:10027000FC01918D828D981731F0828DE80FF11D70
:10028000858D90E008958FEF9FEF0895FC01918D8B
:10029000228D892F90E0805C9F4F821B91098F7384
:1002A0009927089583E592E00E94460121E0892B79
:1002B00009F420E0822F089580E090E0892B29F056
:1002C0000E94520181110C9400000895FC01A48D3C
:1002D000A80FB92FB11DA35ABF4F2C91848D90E068
:1002E00001968F739927848FA689B7892C93A0894B
:1002F000B1898C91837080648C93938D848D9813D5
:1003000006C00288F389E02D80818F7D8083089567
:10031000EF92FF920F931F93CF93DF93EC0181E055
:10032000888F9B8D8C8D98131AC0E889F9898081FC
:1003300085FF15C09FB7F894EE89FF896083E8892F
:10034000F98980818370806480839FBF81E090E021
:10035000DF91CF911F910F91FF90EF900895F62EAE
:100360000B8D10E00F5F1F4F0F731127E02E8C8D48
:100370008E110CC00FB607FCFACFE889F98980818D
:1003800085FFF5CFCE010E946601F1CFEB8DEC0F1A
:10039000FD2FF11DE35AFF4FF0829FB7F8940B8FAA
:1003A000EA89FB8980818062CFCFCF93DF93EC0114
:1003B000888D8823B9F0AA89BB89E889F9898C914D
:1003C00085FD03C0808186FD0DC00FB607FCF7CF09
:1003D0008C9185FFF2CF808185FFEDCFCE010E9409
:1003E0006601E9CFDF91CF91089590E0FC01E859D3
:1003F000FF4F2491FC01EC55FF4F3491FC01E05775
:10040000FF4FE491EE23C9F0222339F0233001F1AC
:10041000A8F4213019F1223029F1F0E0EE0FFF1F8E
:10042000E458FF4FA591B4918FB7F894EC91611106
:1004300026C030953E233C938FBF08952730A9F006
:100440002830C9F0243049F7809180008F7D03C0A7
:10045000809180008F7780938000DFCF84B58F7785
:1004600084BDDBCF84B58F7DFBCF8091B0008F77CB
:100470008093B000D2CF8091B0008F7DF9CF3E2B1A
:10048000DACF3FB7F8948091430290914402A09153
:100490004502B091460226B5A89B05C02F3F19F032
:1004A0000196A11DB11D3FBFBA2FA92F982F8827F4
:1004B000BC01CD01620F711D811D911D42E0660FCF
:1004C000771F881F991F4A95D1F708958F929F92A1
:1004D000AF92BF92CF92DF92EF92FF926B017C01BD
:1004E0000E9441024B015C01C114D104E104F104FA
:1004F000B9F00E944102681979098A099B09683E8E
:1005000073408105910580F321E0C21AD108E1080A
:10051000F10888EE880E83E0981EA11CB11CE4CF80
:10052000FF90EF90DF90CF90BF90AF909F908F9013
:100530000895FC0101900020E9F73197AF01481BB5
:10054000590BBC0183E592E00C94A800CF93DF9394
:100550000E949902EC018DE191E00E9499028C0FBA
:100560009D1FDF91CF910895EF92FF920F931F93FC
:10057000CF93DF938617970769F1FC0124813581BA
:10058000FB014481558124173507E1F4232B11F138
:10059000FC0100811181FB01C081D181F8018191B1
:1005A0008F018823B9F0082E000C990B0E94D10B03
:1005B0007C018991082E000C990B0E94D10BE81642
:1005C000F90661F380E0DF91CF911F910F91FF90C9
:1005D000EF90089581E0F7CF0F931F93CF93DF93B0
:1005E0008C01EB01FC01808191810097E1F0688131
:1005F000798161157105A9F0428153812C813D817A
:100600004217530770F00E94EB0B8C819D81F8011B
:10061000958384831D821C82DF91CF911F910F915E
:1006200008950E948B0A88819981F80191838083C3
:100630008A819B81938382838C819D81958384832E
:10064000198218821B821A82E5CFCF93DF93EC01C7
:1006500088819981009711F00E948B0A1982188273
:100660001D821C821B821A82DF91CF910895FC01AA
:1006700080819181009711F00C948B0A08950F935B
:100680001F93CF93DF93EC0188819981009759F0F4
:100690002A813B812617370730F081E0DF91CF9127
:1006A0001F910F9108958B016F5F7F4F0E94140B74
:1006B000009759F0998388831B830A832C813D819D
:1006C000232B59F7FC011082E8CF80E0E7CFEF92AF
:1006D000FF920F931F93CF93DF938C017B01FB015C
:1006E00001900020E9F73197E61BF70BD1F0DC0110
:1006F0001496CD91DC91CE0FDF1FBE010E943F0307
:100700008823B9F0F8012081318184819581B70176
:10071000820F931F0E94EB0BD8011596DC93CE93AA
:100720001497C801DF91CF911F910F91FF90EF9027
:100730000895C8010E942503F4CFEF92FF920F9312
:100740001F93CF93DF93EC018617970781F0FB018E
:10075000008111810115110539F0E480F580B701A0
:100760000E943F0381110BC0CE010E942503CE01E0
:10077000DF91CF911F910F91FF90EF900895FD822F
:10078000EC82B801888199810E94EB0BF0CFEF9247
:10079000FF920F931F93CF93DF93EC017B0119829C
:1007A00018821B821A821D821C82FB01019000208C
:1007B000E9F731978F01061B170BB8010E943F0321
:1007C000811109C0CE01DF91CF911F910F91FF9050
:1007D000EF900C9425031D830C83B70188819981C8
:1007E000DF91CF911F910F91FF90EF900C94EB0B45
:1007F000EF92FF920F931F93CF93DF9300D0CDB76B
:10080000DEB78C016FE171E00E94C7030E94F8001F
:1008100097FD1EC089831A82F801E480F580FFEFFE
:10082000EF1AFF0AB701C8010E943F03882371F342
:10083000F8012081318184819581BE016F5F7F4FF6
:10084000820F931F0E94EB0BF801F582E482DECF4A
:10085000C8010F900F90DF91CF911F910F91FF90E2
:10086000EF9008951F920F920FB60F9211242F93BD
:100870003F934F935F936F937F938F939F93AF9328
:10088000BF93EF93FF9383E592E00E946601FF918F
:10089000EF91BF91AF919F918F917F916F915F91F8
:1008A0004F913F912F910F900FBE0F901F90189571
:1008B0001F920F920FB60F9211242F938F939F9335
:1008C000EF93FF93E0916302F09164028081E091E5
:1008D0006902F0916A0282FD1BC0908180916C02D6
:1008E0008F5F8F7320916D02821741F0E0916C024F
:1008F000F0E0ED5AFD4F958F80936C02FF91EF91E0
:100900009F918F912F910F900FBE0F901F90189570
:100910008081F4CF1F920F920FB60F9211242F9364
:100920003F938F939F93AF93BF9380914F0290918A
:100930005002A0915102B09152023091420223E044
:10094000230F2D3758F50196A11DB11D20934202AA
:1009500080934F0290935002A0935102B0935202A1
:100960008091430290914402A0914502B0914602C9
:100970000196A11DB11D8093430290934402A09360
:100980004502B0934602BF91AF919F918F913F91E5
:100990002F910F900FBE0F901F90189526E8230FF0
:1009A0000296A11DB11DD2CFE3E5F2E013821282BF
:1009B00088EE93E0A0E0B0E084839583A683B783BC
:1009C0008FE091E09183808385EC90E09587848728
:1009D00084EC90E09787868780EC90E0918B808B09
:1009E00081EC90E0938B828B82EC90E0958B848BF2
:1009F00086EC90E0978B868B118E128E138E148E60
:100A00006FE171E08CEF92E00E94C7036FE171E04B
:100A100086EF92E00E94C7036FE171E080EF92E001
:100A20000C94C703CF93DF93CDB7DEB7E3970FB630
:100A3000F894DEBF0FBECDBF789484B5826084BDCC
:100A400084B5816084BD85B5826085BD85B58160D2
:100A500085BD80916E00816080936E001092810050
:100A6000809181008260809381008091810081600B
:100A700080938100809180008160809380008091CC
:100A8000B10084608093B1008091B0008160809358
:100A9000B00080917A00846080937A0080917A001F
:100AA000826080937A0080917A00816080937A00DE
:100AB00080917A00806880937A001092C10088E06B
:100AC0000E94880089E00E9488008AE00E948800D5
:100AD000E0916302F091640282E08083E0915F0222
:100AE000F09160021082E0916102F09162028FEC5D
:100AF000808310926B02E0916702F091680286E0B9
:100B00008083E0916502F09166028081806180833C
:100B1000E0916502F0916602808188608083E091B7
:100B20006502F0916602808180688083E0916502B1
:100B3000F091660280818F7D8083FF24F39437E0FB
:100B4000232E312C80910001882391F180E291E0E5
:100B50000E94A60283E592E00E944601892BD1F310
:100B6000CE0101960E94F803BE016F5F7F4F8CEFAC
:100B700092E00E94EC02CE0101960E9437036FEBD7
:100B800071E0CE0101960E94C703BE016F5F7F4FE7
:100B90008CEF92E00E94B402182FCE0101960E94C1
:100BA0003703112309F443C0F0924E021092000162
:100BB00080914E028823C9F08BE591E00E94A60245
:100BC00083E592E00E944601892BD1F3CE01019684
:100BD0000E94F803BE016F5F7F4F86EF92E00E9494
:100BE000EC02CE0101960E9437038091F6029091AB
:100BF000F702009709F4F4C00E941309DC01CB014D
:100C00000197A109B10989309105A105B10508F045
:100C1000E7C0FC01E25FF94F0C94E90931068E064A
:100C20009706A606B106BE06CB06DA06E1066DE417
:100C300071E0CE0101960E94C703BE016F5F7F4F36
:100C40008CEF92E00E94B402182FCE0101960E9410
:100C50003703112309F4ACCF8FE491E00E94A60280
:100C6000E6CF88EE93E090934D0280934C028AE0A9
:100C700090E090934B0280934A0203E010E02DB77E
:100C80003EB73BAB2AABC801880F991FEDB7FEB743
:100C9000E81BF90B0FB6F894FEBF0FBEEDBF2DB7E2
:100CA0003EB72F5F3F4F3FA72EA739AB28ABD12CC4
:100CB000C12C0C151D0509F496C00E94BB0823E049
:100CC00030E040E050E00E944F094B015C0138E009
:100CD000830E911CA11CB11CE8A9F9A981929192E3
:100CE000F9ABE8AB61E0882D0E94F50140904C0221
:100CF00050904D02052C000C66087708C301B20124
:100D00000E94660260E0882D0E94F501FFEFCF1A75
:100D1000DF0AC301B2010E946602CBCF80E293E0FA
:100D200090934D0280934C0289E090E0A2CF8CEB2F
:100D300092E090934D0280934C0288E090E0909373
:100D40004B0280934A0204E010E099CF88E592E0DC
:100D500090934D0280934C0230924B0220924A02B3
:100D6000F2CF84EF91E090934D0280934C02309249
:100D70004B0220924A0205E010E081CF80E991E029
:100D800090934D0280934C0286E090E090934B024A
:100D900080934A02F0CF8CE291E090934D028093D1
:100DA0004C0286E090E090934B0280934A0206E06A
:100DB00010E065CF2AEF30E030934D0220934C02D3
:100DC000F0CF85E090E090934B0280934A02E8ECEC
:100DD000F0E0F0934D02E0934C0207E010E04FCFBB
:100DE00010E000E04CCF6FE171E0CE0188960E94E8
:100DF000C70310E000E0C016D10609F44FC0EEA50D
:100E0000FFA581919191FFA7EEA78830910509F583
:100E10001A8219821C821B821E821D82BE01685D9D
:100E20007F4FCE0101960E949D0365E871E0CE01DF
:100E300001960E946703BC01CE0188960E949D0323
:100E4000CE0101960E943703F09249020F5F1F4FB7
:100E5000D2CF8930910581F41A8219821C821B82BB
:100E60001E821D82BE01685D7F4FCE0101960E94E9
:100E70009D0367E871E0DBCF0A9731F71A82198288
:100E80001C821B821E821D82BE01685D7F4FCE01C7
:100E900001960E949D0369E871E0C9CF8CA59DA5CC
:100EA000892B31F0E8A5F9A580818111F0924902E2
:100EB00080914902882309F45DC000914A02109193
:100EC0004B028BE891E00E94A60283E891E00E9429
:100ED000A60281EC91E00E9499022801012E000CEB
:100EE000660877080230110594F10150110968EE87
:100EF00073E080E090E00E946602A301920121501D
:100F000031094109510919A26E01F1E2CF0ED11C3C
:100F100049015A01CA01B9012AE030E040E050E03D
:100F20000E94B809605DF60162936F0121153105D9
:100F30004105510579F7309719F0CF010E949902C8
:100F40008DE191E00E94990224013501CBCFCE01C1
:100F500001960E94F803BE016F5F7F4F80EF92E021
:100F60000E94EC02CE0101960E94370310924902C2
:100F7000F092480280914802882309F455C02CA5BC
:100F80003DA58091F4029091F50228173907A1F44C
:100F900088A599A56091F0027091F102009789F1FE
:100FA0006115710531F4232BC9F1FC01808190E0BA
:100FB00033C00E94E20B30C084EF91E00E94A60291
:100FC000109248022FC06DE471E0CE0101960E949C
:100FD000C703BE016F5F7F4FCE0182960E94B402AD
:100FE00010914702811101C010E0CE0101960E94CC
:100FF0003703112309F445C08FE491E00E94A60253
:10100000E2CF6115710551F0232B41F0FB01808186
:1010100090E0919581959109892B71F682EE91E08E
:101020000E94A602F092470280914702882369F14C
:1010300086E192E00E94A60283E592E00E944601CA
:10104000892BD1F3CE0182960E94F8036FEB71E0F9
:10105000CE0101960E94C703BE016F5F7F4FCE0194
:1010600082960E94B40210914702811101C010E0E3
:10107000CE0101960E943703112309F4A4CFF09208
:101080004E02CE0182960E94370364E670E080E053
:1010900090E00E946602CE0188960E9437032AA93A
:1010A0003BA90FB6F8943EBF0FBE2DBF80E090E085
:1010B000892B09F447CD0E945201882309F43DCDC4
:1010C0000E9400003ACD80EF92E00E94370386EF45
:1010D00092E00E9437038CEF92E00C9437038F92DA
:1010E0009F92AF92BF92CF92DF92EF92FF92CF93F7
:1010F000DF93EC01688179818A819B81611571059B
:101100008105910521F464E279ED8BE597E02DE10D
:1011100033EF41E050E00E944F0949015A019B0121
:10112000AC01A7EAB1E40E946E096B017C01ACEE50
:10113000B4EFA50194010E947C09C60ED71EE81EDB
:10114000F91EF7FE06C081E0C81AD108E10880E860
:10115000F80AC882D982EA82FB82C701B6019F776A
:10116000DF91CF91FF90EF90DF90CF90BF90AF9045
:101170009F908F9008958F929F92AF92BF92CF923F
:10118000DF92EF92FF9260910101709102018091D4
:10119000030190910401611571058105910521F408
:1011A00064E279ED8BE597E02DE133EF41E050E02B
:1011B0000E944F0949015A019B01AC01A7EAB1E421
:1011C0000E946E096B017C01ACEEB4EFA5019401A5
:1011D0000E947C09C60ED71EE81EF91EF7FE06C047
:1011E00081E0C81AD108E10880E8F80AC09201013C
:1011F000D0920201E0920301F0920401C701B6010E
:101200009F77FF90EF90DF90CF90BF90AF909F902F
:101210008F90089560930101709302018093030100
:101220009093040108951F93FC0199278827BC011E
:10123000E89411911032E9F3193010F01E30C8F320
:101240001B3251F01D3249F4689406C00E943A09DD
:10125000610F711D811D911D119110531A30B0F352
:101260003EF490958095709561957F4F8F4F9F4F7D
:101270001F910895592F482F372F262F660F771F5C
:10128000881F991F660F771F881F991F620F731F92
:10129000841F951F660F771F881F991F0895052EBD
:1012A00097FB1EF400940E94660957FD07D00E9428
:1012B000B80907FC03D04EF40C946609509540958C
:1012C000309521953F4F4F4F5F4F089590958095F2
:1012D000709561957F4F8F4F9F4F08950E94DA0957
:1012E000A59F900DB49F900DA49F800D911D11247A
:1012F0000895B7FF0C946E090E946E09821B930B30
:1013000008952F923F924F925F926F927F928F92A9
:101310009F92AF92BF92CF92DF92EF92FF920F9384
:101320001F93CF93DF93CDB7DEB7CA1BDB0B0FB68E
:10133000F894DEBF0FBECDBF09942A88398848884B
:101340005F846E847D848C849B84AA84B984C884E1
:10135000DF80EE80FD800C811B81AA81B981CE0FD8
:10136000D11D0FB6F894DEBF0FBECDBFED010895BD
:10137000A1E21A2EAA1BBB1BFD010DC0AA1FBB1F99
:10138000EE1FFF1FA217B307E407F50720F0A21B0B
:10139000B30BE40BF50B661F771F881F991F1A9478
:1013A00069F760957095809590959B01AC01BD01A2
:1013B000CF010895A29FB001B39FC001A39F700DFC
:1013C000811D1124911DB29F700D811D1124911D4D
:1013D0000895EE0FFF1F0590F491E02D09940F93EF
:1013E0001F93CF93DF938230910510F482E090E059
:1013F000E0910403F091050330E020E0B0E0A0E0CC
:10140000309799F42115310509F44AC0281B390B8E
:1014100024303105D8F58A819B816115710589F1E8
:10142000FB0193838283FE0111C0408151810281BF
:10143000138148175907E0F04817590799F4109796
:1014400061F012960C93129713961C933296CF016B
:10145000DF91CF911F910F91089500930403109392
:101460000503F4CF2115310551F04217530738F029
:10147000A901DB019A01BD01DF01F801C1CFEF0134
:10148000F9CF9093050380930403CDCFFE01E20FC3
:10149000F31F819391932250310939832883D7CF49
:1014A0002091020330910303232B41F42091070183
:1014B000309108013093030320930203209105012A
:1014C000309106012115310541F42DB73EB7409109
:1014D000090150910A01241B350BE0910203F091A0
:1014E0000303E217F307A0F42E1B3F0B281739075D
:1014F00078F0AC014E5F5F4F2417350748F04E0F70
:101500005F1F5093030340930203819391939FCFF6
:10151000F0E0E0E09CCFCF93DF930097E9F0FC018F
:10152000329713821282A0910403B0910503ED015A
:1015300030E020E01097A1F420813181820F931FC9
:1015400020910203309103032817390709F061C085
:10155000F0930303E0930203DF91CF910895EA0132
:10156000CE17DF07E8F54A815B819E0141155105E1
:10157000B1F7E901FB83EA8349915991C40FD51F63
:10158000EC17FD0761F4808191810296840F951F0D
:10159000E90199838883828193819B838A83F0E028
:1015A000E0E012968D919C9113970097B9F52D91DB
:1015B0003C911197CD010296820F931F2091020357
:1015C000309103032817390739F6309751F51092F7
:1015D000050310920403B0930303A0930203BCCF4E
:1015E000D383C28340815181840F951FC817D907C7
:1015F00061F44E5F5F4F88819981480F591F518375
:1016000040838A819B81938382832115310509F070
:10161000B0CFF0930503E09304039ECFFD01DC01FE
:10162000C0CF13821282D7CFB0E0A0E0EAE1FBE0A6
:101630000C9483098C01009751F4CB010E94EF09AF
:101640008C01C801CDB7DEB7E0E10C949F09FC0125
:10165000E60FF71F9C0122503109E217F30708F447
:101660009DC0D901CD91DC911197C617D70798F08D
:10167000C530D10530F3CE0104978617970708F3DC
:10168000C61BD70B2297C193D1936D937C93CF0147
:101690000E948B0AD6CF5B01AC1ABD0A4C018C0E9E
:1016A0009D1EA0910403B0910503512C412CF12CF7
:1016B000E12C109731F58091020390910303881576
:1016C000990509F05CC04616570608F058C080918D
:1016D000050190910601009741F48DB79EB74091A6
:1016E000090150910A01841B950BE817F90708F0CE
:1016F00055C0F0930303E0930203F9017183608303
:10170000A0CF8D919C91119712966C901297139681
:101710007C901397A815B90559F56C0142E0C40EE9
:10172000D11CCA14DB0420F1AC014A195B09DA01AF
:101730001296159780F06282738251834083D9019B
:101740006D937C93E114F10471F0D7011396FC932F
:10175000EE93129776CF22968C0F9D1FF9019183FD
:101760008083F301EFCFF0930503E093040369CF87
:101770004816590608F42C017D01D3019ACFCB01FC
:101780000E94EF097C01009749F0AE01B8010E9468
:10179000D90BC8010E948B0A870153CF10E000E0EB
:1017A00050CF9111089581548A5108F4805E855A72
:1017B0000895FB01DC0102C001900D9241505040A0
:1017C000D8F70895FB01DC018D910190801901107B
:1017D000D9F3990B0895FB01DC0101900D920020D3
:1017E000E1F7089510E0CDE5D0E004C0FE010E94CD
:0E17F000E9092196CE35D107C9F7F894FFCF4D
:1017FE0001010000000000060380000000000088C8
:10180E0001A800D500D5014601E40038010D0A00FB
:10181E004469676974652053207061726120696E36
:10182E006963696172206F206A6F676F2065204E51
:10183E00207061726120736169723A20006E0047F8
:10184E00616D65206F7665722121004573636F6C43
:10185E006861206F206E6976656C2064652064690E
:10186E00666963756C64616465206465203120610E
:10187E0020393A2000310032003300446967697420
:10188E006520612073657175656E636961206461A1
:10189E007320636F7265732064652061636F726479
:1018AE006F20636F6D206F73206E756D65726F7331
:1018BE000054656D706F2072657374616E7465206F
:1018CE0070617261206120726573706F7374613A1A
:1018DE002000526573706F73746120636F7272654E
:1018EE0074612100526573706F737461206572723A
:1018FE00616461212054656E7465206E6F76616D32
:10190E00656E7465210051756572206A6F6761722C
:10191E00206465206E6F766F3F2053207061726178
:10192E002053494D2065204E2070617261204E413A
:02193E004F0058
:00000001FF
